{
  "contractName": "Dummy",
  "abi": [
    {
      "constant": true,
      "inputs": [],
      "name": "storedData",
      "outputs": [
        {
          "name": "",
          "type": "uint256"
        }
      ],
      "payable": false,
      "stateMutability": "view",
      "type": "function"
    },
    {
      "constant": true,
      "inputs": [],
      "name": "testCall",
      "outputs": [
        {
          "name": "",
          "type": "uint256"
        }
      ],
      "payable": false,
      "stateMutability": "pure",
      "type": "function"
    },
    {
      "constant": false,
      "inputs": [
        {
          "name": "_x",
          "type": "uint256"
        }
      ],
      "name": "testTx",
      "outputs": [
        {
          "name": "",
          "type": "bool"
        }
      ],
      "payable": false,
      "stateMutability": "nonpayable",
      "type": "function"
    }
  ],
  "bytecode": "0x608060405234801561001057600080fd5b50610144806100206000396000f300608060405260043610610057576000357c0100000000000000000000000000000000000000000000000000000000900463ffffffff1680632a1afcd91461005c5780634513d77a14610087578063b7f05836146100cc575b600080fd5b34801561006857600080fd5b506100716100f7565b6040518082815260200191505060405180910390f35b34801561009357600080fd5b506100b2600480360381019080803590602001909291905050506100fd565b604051808215151515815260200191505060405180910390f35b3480156100d857600080fd5b506100e161010f565b6040518082815260200191505060405180910390f35b60005481565b60008160008190555060019050919050565b600060079050905600a165627a7a72305820ae8d8dda5011c29b3c4e9b1ab05b68e6496899c53adf6a403ade4784f3f5ed570029",
  "source": "pragma solidity 0.4.24;\n\ncontract Dummy {\n    uint256 public storedData;\n\n    function testCall() external pure returns (uint256) {\n        return 7;\n    }\n\n    function testTx(uint256 _x) external returns (bool) {\n        storedData = _x;\n        return true;\n    }\n}",
  "sourcePath": "/home/ajl/development/tracker/web-client/src/smart-contracts/contracts/Dummy.sol",
  "compiler": {
    "name": "solc",
    "version": "0.4.24+commit.e67f0147.Emscripten.clang"
  },
  "schemaVersion": "2.0.1",
  "updatedAt": "2018-11-12T20:55:13.348Z"
}