{
  "contractName": "ProductRegistry",
  "abi": [
    {
      "constant": true,
      "inputs": [
        {
          "name": "",
          "type": "address"
        }
      ],
      "name": "latestNonce_",
      "outputs": [
        {
          "name": "",
          "type": "uint256"
        }
      ],
      "payable": false,
      "stateMutability": "view",
      "type": "function"
    },
    {
      "constant": true,
      "inputs": [
        {
          "name": "",
          "type": "address"
        }
      ],
      "name": "registeredDevices_",
      "outputs": [
        {
          "name": "",
          "type": "bool"
        }
      ],
      "payable": false,
      "stateMutability": "view",
      "type": "function"
    },
    {
      "anonymous": false,
      "inputs": [
        {
          "indexed": false,
          "name": "id",
          "type": "address"
        },
        {
          "indexed": false,
          "name": "dataHash",
          "type": "bytes"
        }
      ],
      "name": "DeviceCheckedIn",
      "type": "event"
    },
    {
      "anonymous": false,
      "inputs": [
        {
          "indexed": false,
          "name": "id",
          "type": "address"
        }
      ],
      "name": "DeviceRegistered",
      "type": "event"
    },
    {
      "constant": false,
      "inputs": [
        {
          "name": "_hash",
          "type": "bytes32"
        },
        {
          "name": "_sig",
          "type": "bytes"
        },
        {
          "name": "_deviceId",
          "type": "address"
        }
      ],
      "name": "registerDevice",
      "outputs": [
        {
          "name": "",
          "type": "bool"
        }
      ],
      "payable": false,
      "stateMutability": "nonpayable",
      "type": "function"
    },
    {
      "constant": false,
      "inputs": [
        {
          "name": "_sig",
          "type": "bytes"
        },
        {
          "name": "_signer",
          "type": "address"
        },
        {
          "name": "_dataHash",
          "type": "bytes"
        }
      ],
      "name": "checkInDevice",
      "outputs": [
        {
          "name": "",
          "type": "bool"
        }
      ],
      "payable": false,
      "stateMutability": "nonpayable",
      "type": "function"
    }
  ],
  "bytecode": "0x608060405234801561001057600080fd5b50610995806100206000396000f300608060405260043610610062576000357c0100000000000000000000000000000000000000000000000000000000900463ffffffff1680631c2cc585146100675780635e7dc2b1146100be57806398204bfd14610119578063ea3c53d21461019a575b600080fd5b34801561007357600080fd5b506100a8600480360381019080803573ffffffffffffffffffffffffffffffffffffffff169060200190929190505050610225565b6040518082815260200191505060405180910390f35b3480156100ca57600080fd5b506100ff600480360381019080803573ffffffffffffffffffffffffffffffffffffffff16906020019092919050505061023d565b604051808215151515815260200191505060405180910390f35b34801561012557600080fd5b506101806004803603810190808035600019169060200190929190803590602001908201803590602001919091929391929390803573ffffffffffffffffffffffffffffffffffffffff16906020019092919050505061025d565b604051808215151515815260200191505060405180910390f35b3480156101a657600080fd5b5061020b600480360381019080803590602001908201803590602001919091929391929390803573ffffffffffffffffffffffffffffffffffffffff1690602001909291908035906020019082018035906020019190919293919293905050506104c9565b604051808215151515815260200191505060405180910390f35b60016020528060005260406000206000915090505481565b60006020528060005260406000206000915054906101000a900460ff1681565b60008061029c8686868080601f0160208091040260200160405190810160405280939291908181526020018383808284378201915050505050506107ae565b90508273ffffffffffffffffffffffffffffffffffffffff168173ffffffffffffffffffffffffffffffffffffffff16141515610341576040517f08c379a00000000000000000000000000000000000000000000000000000000081526004018080602001828103825260148152602001807f5369676e617475726520697320696e76616c696400000000000000000000000081525060200191505060405180910390fd5b6000808473ffffffffffffffffffffffffffffffffffffffff1673ffffffffffffffffffffffffffffffffffffffff16815260200190815260200160002060009054906101000a900460ff16151515610402576040517f08c379a000000000000000000000000000000000000000000000000000000000815260040180806020018281038252601c8152602001807f44657669636520697320616c726561647920726567697374657265640000000081525060200191505060405180910390fd5b60016000808573ffffffffffffffffffffffffffffffffffffffff1673ffffffffffffffffffffffffffffffffffffffff16815260200190815260200160002060006101000a81548160ff0219169083151502179055507f05d7f0c690676ba31675b45bcdb9ff4c34bb10744ec89d329eacd93c79ecc02981604051808273ffffffffffffffffffffffffffffffffffffffff1673ffffffffffffffffffffffffffffffffffffffff16815260200191505060405180910390a16001915050949350505050565b600080600080600160008873ffffffffffffffffffffffffffffffffffffffff1673ffffffffffffffffffffffffffffffffffffffff168152602001908152602001600020549250826040518082815260200191505060405180910390209150610565828a8a8080601f0160208091040260200160405190810160405280939291908181526020018383808284378201915050505050506107ae565b90508673ffffffffffffffffffffffffffffffffffffffff168173ffffffffffffffffffffffffffffffffffffffff1614151561060a576040517f08c379a00000000000000000000000000000000000000000000000000000000081526004018080602001828103825260178152602001807f5369676e6174757265206973206e6f742076616c69642e00000000000000000081525060200191505060405180910390fd5b6000808273ffffffffffffffffffffffffffffffffffffffff1673ffffffffffffffffffffffffffffffffffffffff16815260200190815260200160002060009054906101000a900460ff1615156106ca576040517f08c379a00000000000000000000000000000000000000000000000000000000081526004018080602001828103825260188152602001807f446576696365206973206e6f742072656769737465726564000000000000000081525060200191505060405180910390fd5b600160008873ffffffffffffffffffffffffffffffffffffffff1673ffffffffffffffffffffffffffffffffffffffff168152602001908152602001600020600081548092919060010191905055507fa95f35b75ac653f780ea50fe4f17a1ecfcd87e36db53fce33d4e3cb7acda750c818787604051808473ffffffffffffffffffffffffffffffffffffffff1673ffffffffffffffffffffffffffffffffffffffff168152602001806020018281038252848482818152602001925080828437820191505094505050505060405180910390a16001935050505095945050505050565b600080600080604185511415156107c857600093506108a5565b6020850151925060408501519150606085015160001a9050601b8160ff1610156107f357601b810190505b601b8160ff161415801561080b5750601c8160ff1614155b1561081957600093506108a5565b6001610824876108ae565b828585604051600081526020016040526040518085600019166000191681526020018460ff1660ff1681526020018360001916600019168152602001826000191660001916815260200194505050505060206040516020810390808403906000865af1158015610898573d6000803e3d6000fd5b5050506020604051035193505b50505092915050565b60008160405160200180807f19457468657265756d205369676e6564204d6573736167653a0a333200000000815250601c0182600019166000191681526020019150506040516020818303038152906040526040518082805190602001908083835b6020831015156109355780518252602082019150602081019050602083039250610910565b6001836020036101000a038019825116818451168082178552505050505050905001915050604051809103902090509190505600a165627a7a7230582020cb97ba6bf02b81645b89c59e50389e1bf173b59a3ad5f5b2a882b08c2cbd9b0029",
  "source": "pragma solidity 0.4.24;\n\nimport \"./ECDSA.sol\";\n\n\ncontract ProductRegistry {\n    mapping(address => bool) public registeredDevices_;\n    \n    // Protection against device check in replay attacks\n    mapping(address => uint256) public latestNonce_;\n\n    event DeviceCheckedIn(address id, bytes dataHash);\n    event DeviceRegistered(address id);\n\n    /**\n        Registering a mobile device or any device that is capable of creating digital signatures\n        A signature will be generated on the device and broadcast to this function\n        The address will be recovered from the sig and that will be the ID for the given product\n     */\n    function registerDevice(bytes32 _hash, bytes _sig, address _deviceId) external returns(bool) {\n        address recoveredId = ECDSA.recover(_hash, _sig);\n\n        // Ensure the signature was valid and recovered id is the same as the id passed in\n        require(recoveredId == _deviceId, \"Signature is invalid\");\n        require(!registeredDevices_[_deviceId], \"Device is already registered\");\n        registeredDevices_[_deviceId] = true;\n\n        emit DeviceRegistered(recoveredId);\n        return true;\n    }\n\n    /**\n        Verify the signature of a device that has been checked in\n     */\n    function checkInDevice(\n        bytes _sig, \n        address _signer,\n        bytes _dataHash\n    ) external returns (bool) {\n        // Need to generate the hash and use the latest nonce to compare with the signature\n        // To eliminate past signatures being replayed\n        uint256 nonce = latestNonce_[_signer];\n        bytes32 hash = keccak256(nonce);\n\n        address id = ECDSA.recover(hash, _sig);\n        \n        require(id == _signer, \"Signature is not valid.\");\n        require(registeredDevices_[id], \"Device is not registered\");\n\n        latestNonce_[_signer]++;\n        emit DeviceCheckedIn(id, _dataHash);\n\n        return true;\n    }\n}",
  "sourcePath": "/home/ajl/development/tracker/web-client/src/smart-contracts/contracts/ProductRegistry.sol",
  "compiler": {
    "name": "solc",
    "version": "0.4.24+commit.e67f0147.Emscripten.clang"
  },
  "schemaVersion": "2.0.1",
  "updatedAt": "2018-11-12T17:15:02.532Z"
}